(base) ali@Alis-Air wk4 % tcpdump -XX -i en0
tcpdump: verbose output suppressed, use -v[v]... for full protocol decode
listening on en0, link-type EN10MB (Ethernet), snapshot length 524288 bytes
16:29:14.935517 IP aicu-aicgeacabqhtpdjqmiku.46083 > 192.168.2.255.swdtp-sv: UDP, length 100
        0x0000:  ffff ffff ffff 0ccf 894b 2588 0800 4500  .........K%...E.
        0x0010:  0080 d752 4000 4011 dbe2 c0a8 02e8 c0a8  ...R@.@.........
        0x0020:  02ff b403 2719 006c c102 756e 6971 7565  ....'..l..unique
        0x0030:  5f69 643d 6169 6375 2d61 6963 6765 6163  _id=aicu-aicgeac
        0x0040:  6162 7168 7470 646a 716d 696b 750a 4950  abqhtpdjqmiku.IP
        0x0050:  343d 3139 322e 3136 382e 322e 3233 320a  4=192.168.2.232.
        0x0060:  4950 363d 6665 3830 3a3a 6563 663a 3839  IP6=fe80::ecf:89
        0x0070:  6666 3a66 6534 623a 3235 3838 0a0a 3825  ff:fe4b:2588..8%
        0x0080:  f8ab 4839 33bf 22fe 5b3a 43bf 1b70       ..H93.".[:C..p
16:29:15.028926 IP alis-air.60419 > mynetwork.home.domain: 24374+ PTR? 232.2.168.192.in-addr.arpa. (44)
        0x0000:  1890 d8da e860 cc08 fa6c 0fac 0800 4500  .....`...l....E.
        0x0010:  0048 e585 0000 4011 0f8e c0a8 0240 c0a8  .H....@......@..
        0x0020:  0201 ec03 0035 0034 6cd5 5f36 0100 0001  .....5.4l._6....
        0x0030:  0000 0000 0000 0332 3332 0132 0331 3638  .......232.2.168
        0x0040:  0331 3932 0769 6e2d 6164 6472 0461 7270  .192.in-addr.arp
        0x0050:  6100 000c 0001                           a.....
16:29:15.056713 IP mynetwork.home.domain > alis-air.60419: 24374* 1/0/0 PTR aicu-aicgeacabqhtpdjqmiku. (83)
        0x0000:  cc08 fa6c 0fac 1890 d8da e860 0800 4500  ...l.......`..E.
        0x0010:  006f 8347 4000 4011 31a5 c0a8 0201 c0a8  .o.G@.@.1.......
        0x0020:  0240 0035 ec03 005b 23b1 5f36 8580 0001  .@.5...[#._6....
        0x0030:  0001 0000 0000 0332 3332 0132 0331 3638  .......232.2.168
        0x0040:  0331 3932 0769 6e2d 6164 6472 0461 7270  .192.in-addr.arp
        0x0050:  6100 000c 0001 c00c 000c 0001 0000 0000  a...............
        0x0060:  001b 1961 6963 752d 6169 6367 6561 6361  ...aicu-aicgeaca
        0x0070:  6271 6874 7064 6a71 6d69 6b75 00         bqhtpdjqmiku.
16:29:15.058276 IP alis-air.55963 > mynetwork.home.domain: 53332+ PTR? 255.2.168.192.in-addr.arpa. (44)
        0x0000:  1890 d8da e860 cc08 fa6c 0fac 0800 4500  .....`...l....E.
        0x0010:  0048 eda9 0000 4011 076a c0a8 0240 c0a8  .H....@..j...@..
        0x0020:  0201 da9b 0035 0034 0b1c d054 0100 0001  .....5.4...T....
        0x0030:  0000 0000 0000 0332 3535 0132 0331 3638  .......255.2.168
        0x0040:  0331 3932 0769 6e2d 6164 6472 0461 7270  .192.in-addr.arp
        0x0050:  6100 000c 0001                           a.....
16:29:15.061584 IP mynetwork.home.domain > alis-air.55963: 53332 NXDomain* 0/0/0 (44)
        0x0000:  cc08 fa6c 0fac 1890 d8da e860 0800 4500  ...l.......`..E.
        0x0010:  0048 8349 4000 4011 31ca c0a8 0201 c0a8  .H.I@.@.1.......
        0x0020:  0240 0035 da9b 0034 8698 d054 8583 0001  .@.5...4...T....
        0x0030:  0000 0000 0000 0332 3535 0132 0331 3638  .......255.2.168
        0x0040:  0331 3932 0769 6e2d 6164 6472 0461 7270  .192.in-addr.arp
        0x0050:  6100 000c 0001                           a.....
16:29:15.165202 IP alis-air.61312 > mynetwork.home.domain: 50290+ PTR? 64.2.168.192.in-addr.arpa. (43)
        0x0000:  1890 d8da e860 cc08 fa6c 0fac 0800 4500  .....`...l....E.
        0x0010:  0047 f445 0000 4011 00cf c0a8 0240 c0a8  .G.E..@......@..
        0x0020:  0201 ef80 0035 0033 440c c472 0100 0001  .....5.3D..r....
        0x0030:  0000 0000 0000 0236 3401 3203 3136 3803  .......64.2.168.
        0x0040:  3139 3207 696e 2d61 6464 7204 6172 7061  192.in-addr.arpa
        0x0050:  0000 0c00 01                             .....
16:29:15.173838 IP mynetwork.home.domain > alis-air.61312: 50290* 1/0/0 PTR Alis-Air. (65)
        0x0000:  cc08 fa6c 0fac 1890 d8da e860 0800 4500  ...l.......`..E.
        0x0010:  005d 8368 4000 4011 3196 c0a8 0201 c0a8  .].h@.@.1.......
        0x0020:  0240 0035 ef80 0049 5a03 c472 8580 0001  .@.5...IZ..r....
        0x0030:  0001 0000 0000 0236 3401 3203 3136 3803  .......64.2.168.
        0x0040:  3139 3207 696e 2d61 6464 7204 6172 7061  192.in-addr.arpa
        0x0050:  0000 0c00 01c0 0c00 0c00 0100 0000 0000  ................
        0x0060:  0a08 416c 6973 2d41 6972 00              ..Alis-Air.
16:29:15.175240 IP alis-air.58406 > mynetwork.home.domain: 18450+ PTR? 1.2.168.192.in-addr.arpa. (42)
        0x0000:  1890 d8da e860 cc08 fa6c 0fac 0800 4500  .....`...l....E.
        0x0010:  0046 abad 0000 4011 4968 c0a8 0240 c0a8  .F....@.Ih...@..
        0x0020:  0201 e426 0035 0032 c10d 4812 0100 0001  ...&.5.2..H.....
        0x0030:  0000 0000 0000 0131 0132 0331 3638 0331  .......1.2.168.1
        0x0040:  3932 0769 6e2d 6164 6472 0461 7270 6100  92.in-addr.arpa.
        0x0050:  000c 0001                                ....
16:29:15.178306 IP mynetwork.home.domain > alis-air.58406: 18450* 1/0/0 PTR mynetwork.home. (70)
        0x0000:  cc08 fa6c 0fac 1890 d8da e860 0800 4500  ...l.......`..E.
        0x0010:  0062 836b 4000 4011 318e c0a8 0201 c0a8  .b.k@.@.1.......
        0x0020:  0240 0035 e426 004e d129 4812 8580 0001  .@.5.&.N.)H.....
        0x0030:  0001 0000 0000 0131 0132 0331 3638 0331  .......1.2.168.1
        0x0040:  3932 0769 6e2d 6164 6472 0461 7270 6100  92.in-addr.arpa.
        0x0050:  000c 0001 c00c 000c 0001 0000 0000 0010  ................
        0x0060:  096d 796e 6574 776f 726b 0468 6f6d 6500  .mynetwork.home.
16:29:15.198879 IP alis-air.61420 > 104.22.14.220.https: Flags [.], ack 278955849, win 2048, length 0
        0x0000:  1890 d8da e860 cc08 fa6c 0fac 0800 4500  .....`...l....E.
        0x0010:  0028 7deb 0000 4006 c30a c0a8 0240 6816  .(}...@......@h.
        0x0020:  0edc efec 01bb 15fd 5ffd 10a0 8749 5010  ........_....IP.
        0x0030:  0800 6e6e 0000                           ..nn..
16:29:15.306323 IP 104.22.14.220.https > alis-air.61420: Flags [.], ack 1, win 8, options [nop,nop,TS val 657185589 ecr 2270799596], length 0
        0x0000:  cc08 fa6c 0fac 1890 d8da e860 0800 4500  ...l.......`..E.
        0x0010:  0034 8998 4000 3806 7f51 6816 0edc c0a8  .4..@.8..Qh.....
        0x0020:  0240 01bb efec 10a0 8749 15fd 5ffe 8010  .@.......I.._...
        0x0030:  0008 0ca7 0000 0101 080a 272b db35 8759  ..........'+.5.Y
        0x0040:  a6ec                                     ..
16:29:16.472064 ARP, Request who-has mynetwork.home tell samsung, length 46
        0x0000:  ffff ffff ffff 54bd 7928 f356 0806 0001  ......T.y(.V....
        0x0010:  0800 0604 0001 54bd 7928 f356 c0a8 0212  ......T.y(.V....
        0x0020:  0000 0000 0000 c0a8 0201 0000 0000 0000  ................
        0x0030:  0000 0000 0000 0000 0000 0000            ............
16:29:16.472518 IP 162.159.130.234.https > alis-air.61131: Flags [P.], seq 3967727469:3967727546, ack 3384767708, win 8, options [nop,nop,TS val 2535138916 ecr 3649619915], length 77
        0x0000:  cc08 fa6c 0fac 1890 d8da e860 0800 4500  ...l.......`..E.
        0x0010:  0081 f7d4 4000 3806 6230 a29f 82ea c0a8  ....@.8.b0......
        0x0020:  0240 01bb eecb ec7e b76d c9bf 74dc 8018  .@.....~.m..t...
        0x0030:  0008 e432 0000 0101 080a 971b 2664 d988  ...2........&d..
        0x0040:  c7cb 1703 0300 4841 e204 cc22 a13e ba7e  ......HA...".>.~
        0x0050:  da92 3550 f22f 2f06 fd2f 06ae 847f 982d  ..5P.//../.....-
        0x0060:  7748 6e79 78f0 4f10 6fa2 d158 b9ad 3802  wHnyx.O.o..X..8.
        0x0070:  ab63 89f8 c723 5f53 fd0a aa1b 37ec 1f28  .c...#_S....7..(
        0x0080:  75cd 86c4 17fb a31c bf33 a067 9e47 ca    u........3.g.G.
16:29:16.472720 IP alis-air.61131 > 162.159.130.234.https: Flags [.], ack 77, win 8271, options [nop,nop,TS val 3649622063 ecr 2535138916], length 0
        0x0000:  1890 d8da e860 cc08 fa6c 0fac 0800 4500  .....`...l....E.
        0x0010:  0034 0000 4000 4006 5252 c0a8 0240 a29f  .4..@.@.RR...@..
        0x0020:  82ea eecb 01bb c9bf 74dc ec7e b7ba 8010  ........t..~....
        0x0030:  204f 3367 0000 0101 080a d988 d02f 971b  .O3g........./..
        0x0040:  2664                                     &d
16:29:16.496275 IP alis-air.51357 > mynetwork.home.domain: 63712+ PTR? 18.2.168.192.in-addr.arpa. (43)
        0x0000:  1890 d8da e860 cc08 fa6c 0fac 0800 4500  .....`...l....E.
        0x0010:  0047 c630 0000 4011 2ee4 c0a8 0240 c0a8  .G.0..@......@..
        0x0020:  0201 c89d 0035 0033 3286 f8e0 0100 0001  .....5.32.......
        0x0030:  0000 0000 0000 0231 3801 3203 3136 3803  .......18.2.168.
        0x0040:  3139 3207 696e 2d61 6464 7204 6172 7061  192.in-addr.arpa
        0x0050:  0000 0c00 01                             .....
16:29:16.508219 IP mynetwork.home.domain > alis-air.51357: 63712* 1/0/0 PTR Samsung. (64)
        0x0000:  cc08 fa6c 0fac 1890 d8da e860 0800 4500  ...l.......`..E.
        0x0010:  005c 84e4 4000 4011 301b c0a8 0201 c0a8  .\..@.@.0.......
        0x0020:  0240 0035 c89d 0048 edcf f8e0 8580 0001  .@.5...H........
        0x0030:  0001 0000 0000 0231 3801 3203 3136 3803  .......18.2.168.
        0x0040:  3139 3207 696e 2d61 6464 7204 6172 7061  192.in-addr.arpa
        0x0050:  0000 0c00 01c0 0c00 0c00 0100 0000 0000  ................
        0x0060:  0907 5361 6d73 756e 6700                 ..Samsung.
16:29:16.675584 IP dragon.mdns > mdns.mcast.net.mdns: 0 PTR (QM)? _oculusal_sp_v2._tcp.local. (44)
        0x0000:  0100 5e00 00fb 0cb6 d2d0 834e 0800 4500  ..^........N..E.
        0x0010:  0048 1aae 0000 0111 fa78 c0a8 02db e000  .H.......x......
        0x0020:  00fb 14e9 14e9 0034 fb79 0000 0000 0001  .......4.y......
        0x0030:  0000 0000 0000 0f5f 6f63 756c 7573 616c  ......._oculusal
        0x0040:  5f73 705f 7632 045f 7463 7005 6c6f 6361  _sp_v2._tcp.loca
        0x0050:  6c00 000c 0001                           l.....
16:29:16.675634 IP dragon.mdns > mdns.mcast.net.mdns: 0 PTR (QM)? _oculusal_sp._tcp.local. (41)
        0x0000:  0100 5e00 00fb 0cb6 d2d0 834e 0800 4500  ..^........N..E.
        0x0010:  0045 1aaf 0000 0111 fa7a c0a8 02db e000  .E.......z......
        0x0020:  00fb 14e9 14e9 0031 f392 0000 0000 0001  .......1........
        0x0030:  0000 0000 0000 0c5f 6f63 756c 7573 616c  ......._oculusal
        0x0040:  5f73 7004 5f74 6370 056c 6f63 616c 0000  _sp._tcp.local..
        0x0050:  0c00 01                                  ...
16:29:16.676274 IP dragon.mdns > mdns.mcast.net.mdns: 0*- [0q] 1/0/4 PTR Ali's PC::Dragon._oculusal_sp_v2._tcp.local. (254)
        0x0000:  0100 5e00 00fb 0cb6 d2d0 834e 0800 4500  ..^........N..E.
        0x0010:  011a 1ab0 0000 0111 f9a4 c0a8 02db e000  ................
        0x0020:  00fb 14e9 14e9 0106 b87e 0000 8400 0000  .........~......
        0x0030:  0001 0000 0004 0f5f 6f63 756c 7573 616c  ......._oculusal
        0x0040:  5f73 705f 7632 045f 7463 7005 6c6f 6361  _sp_v2._tcp.loca
        0x0050:  6c00 000c 0001 0000 1194 002d 1041 6c69  l..........-.Ali
        0x0060:  2773 2050 433a 3a44 7261 676f 6e0f 5f6f  's.PC::Dragon._o
        0x0070:  6375 6c75 7361 6c5f 7370 5f76 3204 5f74  culusal_sp_v2._t
        0x0080:  6370 056c 6f63 616c 0010 416c 6927 7320  cp.local..Ali's.
        0x0090:  5043 3a3a 4472 6167 6f6e 0f5f 6f63 756c  PC::Dragon._ocul
        0x00a0:  7573 616c 5f73 705f 7632 045f 7463 7005  usal_sp_v2._tcp.
        0x00b0:  6c6f 6361 6c00 0021 0001 0000 0078 0014  local..!.....x..
        0x00c0:  0000 0000 c2b4 0644 7261 676f 6e05 6c6f  .......Dragon.lo
        0x00d0:  6361 6c00 c05f 0010 0001 0000 1194 0000  cal.._..........
        0x00e0:  0644 7261 676f 6e05 6c6f 6361 6c00 0001  .Dragon.local...
        0x00f0:  0001 0000 003c 0004 c0a8 02db 0644 7261  .....<.......Dra
        0x0100:  676f 6e05 6c6f 6361 6c00 002f 0001 0000  gon.local../....
        0x0110:  003c 0014 0644 7261 676f 6e05 6c6f 6361  .<...Dragon.loca
        0x0120:  6c00 0004 0000 0008                      l.......
16:29:16.676783 IP dragon.mdns > mdns.mcast.net.mdns: 0*- [0q] 1/0/4 PTR Ali's PC::Dragon._oculusal_sp._tcp.local. (245)
        0x0000:  0100 5e00 00fb 0cb6 d2d0 834e 0800 4500  ..^........N..E.
        0x0010:  0111 1ab1 0000 0111 f9ac c0a8 02db e000  ................
        0x0020:  00fb 14e9 14e9 00fd 7001 0000 8400 0000  ........p.......
        0x0030:  0001 0000 0004 0c5f 6f63 756c 7573 616c  ......._oculusal
        0x0040:  5f73 7004 5f74 6370 056c 6f63 616c 0000  _sp._tcp.local..
        0x0050:  0c00 0100 0011 9400 2a10 416c 6927 7320  ........*.Ali's.
        0x0060:  5043 3a3a 4472 6167 6f6e 0c5f 6f63 756c  PC::Dragon._ocul
        0x0070:  7573 616c 5f73 7004 5f74 6370 056c 6f63  usal_sp._tcp.loc
        0x0080:  616c 0010 416c 6927 7320 5043 3a3a 4472  al..Ali's.PC::Dr
        0x0090:  6167 6f6e 0c5f 6f63 756c 7573 616c 5f73  agon._oculusal_s
        0x00a0:  7004 5f74 6370 056c 6f63 616c 0000 2100  p._tcp.local..!.
        0x00b0:  0100 0000 7800 1400 0000 00c2 b606 4472  ....x.........Dr
        0x00c0:  6167 6f6e 056c 6f63 616c 00c0 5900 1000  agon.local..Y...
        0x00d0:  0100 0011 9400 0006 4472 6167 6f6e 056c  ........Dragon.l
        0x00e0:  6f63 616c 0000 0100 0100 0000 3c00 04c0  ocal........<...
        0x00f0:  a802 db06 4472 6167 6f6e 056c 6f63 616c  ....Dragon.local
        0x0100:  0000 2f00 0100 0000 3c00 1406 4472 6167  ../.....<...Drag
        0x0110:  6f6e 056c 6f63 616c 0000 0400 0000 08    on.local.......
16:29:16.712214 IP alis-air.51802 > mynetwork.home.domain: 26397+ PTR? 219.2.168.192.in-addr.arpa. (44)
        0x0000:  1890 d8da e860 cc08 fa6c 0fac 0800 4500  .....`...l....E.
        0x0010:  0048 d6fe 0000 4011 1e15 c0a8 0240 c0a8  .H....@......@..
        0x0020:  0201 ca5a 0035 0034 8890 671d 0100 0001  ...Z.5.4..g.....
        0x0030:  0000 0000 0000 0332 3139 0132 0331 3638  .......219.2.168
        0x0040:  0331 3932 0769 6e2d 6164 6472 0461 7270  .192.in-addr.arp
        0x0050:  6100 000c 0001                           a.....
16:29:16.825867 IP alis-air.61125 > google-nest-mini.8009: Flags [P.], seq 2555303819:2555303929, ack 3768246863, win 2048, options [nop,nop,TS val 1840993915 ecr 3316340703], length 110
        0x0000:  d4f5 4702 a178 cc08 fa6c 0fac 0800 4500  ..G..x...l....E.
        0x0010:  00a2 0000 4000 4006 b4b6 c0a8 0240 c0a8  ....@.@......@..
        0x0020:  020f eec5 1f49 984e d78b e09a e24f 8018  .....I.N.....O..
        0x0030:  0800 b588 0000 0101 080a 6dbb 567b c5ab  ..........m.V{..
        0x0040:  57df 1703 0300 6958 8207 4426 9ccb 96ee  W.....iX..D&....
        0x0050:  eb2a fd22 2fee b206 5676 922a ca72 a6ed  .*."/...Vv.*.r..
        0x0060:  ca6e fb75 000d 8196 d371 5df7 6e61 b399  .n.u.....q].na..
        0x0070:  38d2 aaa5 fde9 84ac fb20 6e3c b0c7 34af  8.........n<..4.
        0x0080:  dbf7 3b52 7ff1 9d5e 729b d2c0 06d4 9e80  ..;R...^r.......
        0x0090:  b940 650b 1094 3d40 e486 0cb0 aea9 ef48  .@e...=@.......H
        0x00a0:  05c4 5256 50cf 1362 c92e 6a68 3f66 d553  ..RVP..b..jh?f.S
16:29:16.864573 IP alis-air.59580 > mynetwork.home.domain: 9786+ [1au] A? captive.apple.com. (46)
        0x0000:  1890 d8da e860 cc08 fa6c 0fac 0800 4500  .....`...l....E.
        0x0010:  004a 7f2d 0000 4011 75e4 c0a8 0240 c0a8  .J.-..@.u....@..
        0x0020:  0201 e8bc 0035 0036 ba1f 263a 0100 0001  .....5.6..&:....
        0x0030:  0000 0000 0001 0763 6170 7469 7665 0561  .......captive.a
        0x0040:  7070 6c65 0363 6f6d 0000 0100 0100 0029  pple.com.......)
        0x0050:  04d0 0000 0000 0000                      ........
16:29:16.864578 IP alis-air.55902 > mynetwork.home.domain: 14182+ [1au] AAAA? captive.apple.com. (46)
        0x0000:  1890 d8da e860 cc08 fa6c 0fac 0800 4500  .....`...l....E.
        0x0010:  004a 3c7d 0000 4011 b894 c0a8 0240 c0a8  .J<}..@......@..
        0x0020:  0201 da5e 0035 0036 9c51 3766 0100 0001  ...^.5.6.Q7f....
        0x0030:  0000 0000 0001 0763 6170 7469 7665 0561  .......captive.a
        0x0040:  7070 6c65 0363 6f6d 0000 1c00 0100 0029  pple.com.......)
        0x0050:  04d0 0000 0000 0000                      ........
16:29:16.876108 IP mynetwork.home.domain > alis-air.51802: 26397* 1/0/0 PTR Dragon. (64)
        0x0000:  cc08 fa6c 0fac 1890 d8da e860 0800 4500  ...l.......`..E.
        0x0010:  005c 85aa 4000 4011 2f55 c0a8 0201 c0a8  .\..@.@./U......
        0x0020:  0240 0035 ca5a 0048 f5af 671d 8580 0001  .@.5.Z.H..g.....
        0x0030:  0001 0000 0000 0332 3139 0132 0331 3638  .......219.2.168
        0x0040:  0331 3932 0769 6e2d 6164 6472 0461 7270  .192.in-addr.arp
        0x0050:  6100 000c 0001 c00c 000c 0001 0000 0000  a...............
        0x0060:  0008 0644 7261 676f 6e00                 ...Dragon.
16:29:16.876109 IP mynetwork.home.domain > alis-air.59580: 9786 5/0/1 CNAME captive-cidr.origin-apple.com.akadns.net., CNAME captive-cdn.origin-apple.com.akadns.net., CNAME captive.g.aaplimg.com., A 17.253.3.198, A 17.253.3.199 (220)
        0x0000:  cc08 fa6c 0fac 1890 d8da e860 0800 4500  ...l.......`..E.
        0x0010:  00f8 85ab 4000 4011 2eb8 c0a8 0201 c0a8  ....@.@.........
        0x0020:  0240 0035 e8bc 00e4 f82a 263a 8180 0001  .@.5.....*&:....
        0x0030:  0005 0000 0001 0763 6170 7469 7665 0561  .......captive.a
        0x0040:  7070 6c65 0363 6f6d 0000 0100 01c0 0c00  pple.com........
        0x0050:  0500 0100 0081 2d00 2a0c 6361 7074 6976  ......-.*.captiv
        0x0060:  652d 6369 6472 0c6f 7269 6769 6e2d 6170  e-cidr.origin-ap
        0x0070:  706c 6503 636f 6d06 616b 6164 6e73 036e  ple.com.akadns.n
        0x0080:  6574 00c0 2f00 0500 0100 0000 0b00 290b  et../.........).
        0x0090:  6361 7074 6976 652d 6364 6e0c 6f72 6967  captive-cdn.orig
        0x00a0:  696e 2d61 7070 6c65 0363 6f6d 0661 6b61  in-apple.com.aka
        0x00b0:  646e 7303 6e65 7400 c065 0005 0001 0000  dns.net..e......
        0x00c0:  000a 0017 0763 6170 7469 7665 0167 0761  .....captive.g.a
        0x00d0:  6170 6c69 6d67 0363 6f6d 00c0 9a00 0100  aplimg.com......
        0x00e0:  0100 0000 0700 0411 fd03 c6c0 9a00 0100  ................
        0x00f0:  0100 0000 0700 0411 fd03 c700 0029 1000  .............)..
        0x0100:  0000 0000 0000                           ......
16:29:16.876110 IP mynetwork.home.domain > alis-air.55902: 14182 5/0/1 CNAME captive-cidr.origin-apple.com.akadns.net., CNAME captive-cdn.origin-apple.com.akadns.net., CNAME captive.g.aaplimg.com., AAAA 2620:149:a33:f100::200, AAAA 2620:149:a33:f000::195 (244)
        0x0000:  cc08 fa6c 0fac 1890 d8da e860 0800 4500  ...l.......`..E.
        0x0010:  0110 85ac 4000 4011 2e9f c0a8 0201 c0a8  ....@.@.........
        0x0020:  0240 0035 da5e 00fc 3c10 3766 8180 0001  .@.5.^..<.7f....
        0x0030:  0005 0000 0001 0763 6170 7469 7665 0561  .......captive.a
        0x0040:  7070 6c65 0363 6f6d 0000 1c00 01c0 0c00  pple.com........
        0x0050:  0500 0100 0081 2d00 2a0c 6361 7074 6976  ......-.*.captiv
        0x0060:  652d 6369 6472 0c6f 7269 6769 6e2d 6170  e-cidr.origin-ap
        0x0070:  706c 6503 636f 6d06 616b 6164 6e73 036e  ple.com.akadns.n
        0x0080:  6574 00c0 2f00 0500 0100 0000 0b00 290b  et../.........).
        0x0090:  6361 7074 6976 652d 6364 6e0c 6f72 6967  captive-cdn.orig
        0x00a0:  696e 2d61 7070 6c65 0363 6f6d 0661 6b61  in-apple.com.aka
        0x00b0:  646e 7303 6e65 7400 c065 0005 0001 0000  dns.net..e......
        0x00c0:  000a 0017 0763 6170 7469 7665 0167 0761  .....captive.g.a
        0x00d0:  6170 6c69 6d67 0363 6f6d 00c0 9a00 1c00  aplimg.com......
        0x00e0:  0100 0000 0b00 1026 2001 490a 33f1 0000  .......&..I.3...
        0x00f0:  0000 0000 0002 00c0 9a00 1c00 0100 0000  ................
        0x0100:  0b00 1026 2001 490a 33f0 0000 0000 0000  ...&..I.3.......
        0x0110:  0001 9500 0029 1000 0000 0000 0000       .....)........
16:29:16.876550 IP alis-air.61460 > usnyc3-vip-bx-002.b.aaplimg.com.http: Flags [S], seq 2254843486, win 65535, options [mss 1460,nop,wscale 6,nop,nop,TS val 3240182723 ecr 0,sackOK,eol], length 0
        0x0000:  1890 d8da e860 cc08 fa6c 0fac 0800 4500  .....`...l....E.
        0x0010:  0040 0000 4000 4006 620d c0a8 0240 11fd  .@..@.@.b....@..
        0x0020:  03c6 f014 0050 8666 2e5e 0000 0000 b002  .....P.f.^......
        0x0030:  ffff b442 0000 0204 05b4 0103 0306 0101  ...B............
        0x0040:  080a c121 43c3 0000 0000 0402 0000       ...!C.........
16:29:16.877523 IP google-nest-mini.8009 > alis-air.61125: Flags [P.], seq 1:111, ack 110, win 503, options [nop,nop,TS val 3316345758 ecr 1840993915], length 110
        0x0000:  cc08 fa6c 0fac d4f5 4702 a178 0800 4500  ...l....G..x..E.
        0x0010:  00a2 e60d 4000 4006 cea8 c0a8 020f c0a8  ....@.@.........
        0x0020:  0240 1f49 eec5 e09a e24f 984e d7f9 8018  .@.I.....O.N....
        0x0030:  01f7 aab1 0000 0101 080a c5ab 6b9e 6dbb  ............k.m.
        0x0040:  567b 1703 0300 69ab b270 aa2e 96d4 55ae  V{....i..p....U.
        0x0050:  d11e d05b 99b7 8007 c8da 4e86 368a 41bb  ...[......N.6.A.
        0x0060:  2218 922e be67 c26f 61e6 d1c4 bc44 e438  "....g.oa....D.8
        0x0070:  cd4e e7fa 335a 18a1 9388 63bb 9b76 bd27  .N..3Z....c..v.'
        0x0080:  613b f998 2a4d e0ae a007 9e3c c1ab a2a0  a;..*M.....<....
        0x0090:  ebd6 f968 be46 abbc f324 203b 6771 1cfb  ...h.F...$.;gq..
        0x00a0:  d715 5f3a f220 5298 4f2c 90aa 7e77 d253  .._:..R.O,..~w.S
16:29:16.877627 IP alis-air.61125 > google-nest-mini.8009: Flags [.], ack 111, win 2046, options [nop,nop,TS val 1840993966 ecr 3316345758], length 0
        0x0000:  d4f5 4702 a178 cc08 fa6c 0fac 0800 4500  ..G..x...l....E.
        0x0010:  0034 0000 4000 4006 b524 c0a8 0240 c0a8  .4..@.@..$...@..
        0x0020:  020f eec5 1f49 984e d7f9 e09a e2bd 8010  .....I.N........
        0x0030:  07fe b1bb 0000 0101 080a 6dbb 56ae c5ab  ..........m.V...
        0x0040:  6b9e                                     k.
16:29:16.901676 IP usnyc3-vip-bx-002.b.aaplimg.com.http > alis-air.61460: Flags [S.], seq 3280781919, ack 2254843487, win 64980, options [mss 1452,sackOK,TS val 1836793941 ecr 3240182723,nop,wscale 8], length 0
        0x0000:  cc08 fa6c 0fac 1890 d8da e860 0800 4500  ...l.......`..E.
        0x0010:  003c 0000 4000 3806 6a11 11fd 03c6 c0a8  .<..@.8.j.......
        0x0020:  0240 0050 f014 c38c c25f 8666 2e5f a012  .@.P....._.f._..
        0x0030:  fdd4 93aa 0000 0204 05ac 0402 080a 6d7b  ..............m{
        0x0040:  4055 c121 43c3 0103 0308                 @U.!C.....
16:29:16.901878 IP alis-air.61460 > usnyc3-vip-bx-002.b.aaplimg.com.http: Flags [.], ack 1, win 2070, options [nop,nop,TS val 3240182749 ecr 1836793941], length 0
        0x0000:  1890 d8da e860 cc08 fa6c 0fac 0800 4500  .....`...l....E.
        0x0010:  0034 0000 4000 4006 6219 c0a8 0240 11fd  .4..@.@.b....@..
        0x0020:  03c6 f014 0050 8666 2e5f c38c c260 8010  .....P.f._...`..
        0x0030:  0816 b814 0000 0101 080a c121 43dd 6d7b  ...........!C.m{
        0x0040:  4055                                     @U
16:29:16.902002 IP alis-air.61460 > usnyc3-vip-bx-002.b.aaplimg.com.http: Flags [P.], seq 1:118, ack 1, win 2070, options [nop,nop,TS val 3240182749 ecr 1836793941], length 117: HTTP: GET / HTTP/1.1
        0x0000:  1890 d8da e860 cc08 fa6c 0fac 0800 4500  .....`...l....E.
        0x0010:  00a9 0000 4000 4006 61a4 c0a8 0240 11fd  ....@.@.a....@..
        0x0020:  03c6 f014 0050 8666 2e5f c38c c260 8018  .....P.f._...`..
        0x0030:  0816 9cc9 0000 0101 080a c121 43dd 6d7b  ...........!C.m{
        0x0040:  4055 4745 5420 2f20 4854 5450 2f31 2e31  @UGET./.HTTP/1.1
        0x0050:  0d0a 486f 7374 3a20 6361 7074 6976 652e  ..Host:.captive.
        0x0060:  6170 706c 652e 636f 6d0d 0a55 7365 722d  apple.com..User-
        0x0070:  4167 656e 743a 2047 6f2d 6874 7470 2d63  Agent:.Go-http-c
        0x0080:  6c69 656e 742f 312e 310d 0a41 6363 6570  lient/1.1..Accep
        0x0090:  742d 456e 636f 6469 6e67 3a20 677a 6970  t-Encoding:.gzip
        0x00a0:  0d0a 436f 6e6e 6563 7469 6f6e 3a20 636c  ..Connection:.cl
        0x00b0:  6f73 650d 0a0d 0a                        ose....
16:29:16.924812 IP usnyc3-vip-bx-002.b.aaplimg.com.http > alis-air.61460: Flags [.], ack 118, win 254, options [nop,nop,TS val 1836793966 ecr 3240182749], length 0
        0x0000:  cc08 fa6c 0fac 1890 d8da e860 0800 4500  ...l.......`..E.
        0x0010:  0034 ede3 4000 3806 7c35 11fd 03c6 c0a8  .4..@.8.|5......
        0x0020:  0240 0050 f014 c38c c260 8666 2ed4 8010  .@.P.....`.f....
        0x0030:  00fe be9e 0000 0101 080a 6d7b 406e c121  ..........m{@n.!
        0x0040:  43dd                                     C.
16:29:16.929232 IP usnyc3-vip-bx-002.b.aaplimg.com.http > alis-air.61460: Flags [P.], seq 1:522, ack 118, win 254, options [nop,nop,TS val 1836793966 ecr 3240182749], length 521: HTTP: HTTP/1.1 200 OK
        0x0000:  cc08 fa6c 0fac 1890 d8da e860 0800 4500  ...l.......`..E.
        0x0010:  023d ede4 4000 3806 7a2b 11fd 03c6 c0a8  .=..@.8.z+......
        0x0020:  0240 0050 f014 c38c c260 8666 2ed4 8018  .@.P.....`.f....
        0x0030:  00fe 582b 0000 0101 080a 6d7b 406e c121  ..X+......m{@n.!
        0x0040:  43dd 4854 5450 2f31 2e31 2032 3030 204f  C.HTTP/1.1.200.O
        0x0050:  4b0d 0a43 6f6e 7465 6e74 2d4c 656e 6774  K..Content-Lengt
        0x0060:  683a 2036 390d 0a43 6163 6865 2d43 6f6e  h:.69..Cache-Con
        0x0070:  7472 6f6c 3a20 6d61 782d 6167 653d 3331  trol:.max-age=31
        0x0080:  3533 3630 3030 0d0a 4c61 7374 2d4d 6f64  536000..Last-Mod
        0x0090:  6966 6965 643a 2054 6875 2c20 3131 204a  ified:.Thu,.11.J
        0x00a0:  616e 2032 3032 3420 3035 3a33 333a 3235  an.2024.05:33:25
        0x00b0:  2047 4d54 0d0a 436f 6e74 656e 742d 5479  .GMT..Content-Ty
        0x00c0:  7065 3a20 7465 7874 2f68 746d 6c0d 0a44  pe:.text/html..D
        0x00d0:  6174 653a 2054 6875 2c20 3131 204a 616e  ate:.Thu,.11.Jan
        0x00e0:  2032 3032 3420 3035 3a33 333a 3235 2047  .2024.05:33:25.G
        0x00f0:  4d54 0d0a 4167 653a 2033 3235 3431 3532  MT..Age:.3254152
        0x0100:  0d0a 5669 613a 2068 7474 702f 312e 3120  ..Via:.http/1.1.
        0x0110:  7573 6e79 6333 2d65 6467 652d 6278 2d30  usnyc3-edge-bx-0
        0x0120:  3034 2e74 732e 6170 706c 652e 636f 6d20  04.ts.apple.com.
        0x0130:  2861 6364 6e2f 3131 312e 3134 3430 3329  (acdn/111.14403)
        0x0140:  2c20 6874 7470 2f31 2e31 2075 736e 7963  ,.http/1.1.usnyc
        0x0150:  332d 6564 6765 2d62 782d 3030 342e 7473  3-edge-bx-004.ts
        0x0160:  2e61 7070 6c65 2e63 6f6d 2028 6163 646e  .apple.com.(acdn
        0x0170:  2f31 3333 2e31 3434 3137 290d 0a58 2d43  /133.14417)..X-C
        0x0180:  6163 6865 3a20 6d69 7373 2c20 6869 742d  ache:.miss,.hit-
        0x0190:  6672 6573 680d 0a43 444e 5555 4944 3a20  fresh..CDNUUID:.
        0x01a0:  6463 6437 3766 3739 2d38 6337 622d 3435  dcd77f79-8c7b-45
        0x01b0:  3438 2d38 6634 372d 3433 3862 3331 3537  48-8f47-438b3157
        0x01c0:  3831 6435 2d33 3837 3533 3331 3230 340d  81d5-3875331204.
        0x01d0:  0a41 6363 6573 732d 436f 6e74 726f 6c2d  .Access-Control-
        0x01e0:  416c 6c6f 772d 4f72 6967 696e 3a20 2a0d  Allow-Origin:.*.
        0x01f0:  0a43 6f6e 6e65 6374 696f 6e3a 2063 6c6f  .Connection:.clo
        0x0200:  7365 0d0a 0d0a 3c48 544d 4c3e 3c48 4541  se....<HTML><HEA
        0x0210:  443e 3c54 4954 4c45 3e53 7563 6365 7373  D><TITLE>Success
        0x0220:  3c2f 5449 544c 453e 3c2f 4845 4144 3e3c  </TITLE></HEAD><
        0x0230:  424f 4459 3e53 7563 6365 7373 3c2f 424f  BODY>Success</BO
        0x0240:  4459 3e3c 2f48 544d 4c3e 0a              DY></HTML>.
16:29:16.929234 IP usnyc3-vip-bx-002.b.aaplimg.com.http > alis-air.61460: Flags [F.], seq 522, ack 118, win 254, options [nop,nop,TS val 1836793966 ecr 3240182749], length 0
        0x0000:  cc08 fa6c 0fac 1890 d8da e860 0800 4500  ...l.......`..E.
        0x0010:  0034 ede5 4000 3806 7c33 11fd 03c6 c0a8  .4..@.8.|3......
        0x0020:  0240 0050 f014 c38c c469 8666 2ed4 8011  .@.P.....i.f....
        0x0030:  00fe bc94 0000 0101 080a 6d7b 406e c121  ..........m{@n.!
        0x0040:  43dd                                     C.
16:29:16.929337 IP alis-air.61460 > usnyc3-vip-bx-002.b.aaplimg.com.http: Flags [.], ack 522, win 2061, options [nop,nop,TS val 3240182776 ecr 1836793966], length 0
        0x0000:  1890 d8da e860 cc08 fa6c 0fac 0800 4500  .....`...l....E.
        0x0010:  0034 0000 4000 4006 6219 c0a8 0240 11fd  .4..@.@.b....@..
        0x0020:  03c6 f014 0050 8666 2ed4 c38c c469 8010  .....P.f.....i..
        0x0030:  080d b56b 0000 0101 080a c121 43f8 6d7b  ...k.......!C.m{
        0x0040:  406e                                     @n
16:29:16.929412 IP alis-air.61460 > usnyc3-vip-bx-002.b.aaplimg.com.http: Flags [.], ack 523, win 2061, options [nop,nop,TS val 3240182776 ecr 1836793966], length 0
        0x0000:  1890 d8da e860 cc08 fa6c 0fac 0800 4500  .....`...l....E.
        0x0010:  0034 0000 4000 4006 6219 c0a8 0240 11fd  .4..@.@.b....@..
        0x0020:  03c6 f014 0050 8666 2ed4 c38c c46a 8010  .....P.f.....j..
        0x0030:  080d b56a 0000 0101 080a c121 43f8 6d7b  ...j.......!C.m{
        0x0040:  406e                                     @n
16:29:16.929545 IP alis-air.61460 > usnyc3-vip-bx-002.b.aaplimg.com.http: Flags [F.], seq 118, ack 523, win 2061, options [nop,nop,TS val 3240182776 ecr 1836793966], length 0
        0x0000:  1890 d8da e860 cc08 fa6c 0fac 0800 4500  .....`...l....E.
        0x0010:  0034 0000 4000 4006 6219 c0a8 0240 11fd  .4..@.@.b....@..
        0x0020:  03c6 f014 0050 8666 2ed4 c38c c46a 8011  .....P.f.....j..
        0x0030:  080d b569 0000 0101 080a c121 43f8 6d7b  ...i.......!C.m{
        0x0040:  406e                                     @n
16:29:16.952748 IP usnyc3-vip-bx-002.b.aaplimg.com.http > alis-air.61460: Flags [.], ack 119, win 254, options [nop,nop,TS val 1836793994 ecr 3240182776], length 0
        0x0000:  cc08 fa6c 0fac 1890 d8da e860 0800 4500  ...l.......`..E.
        0x0010:  0034 0000 4000 3806 6a19 11fd 03c6 c0a8  .4..@.8.j.......
        0x0020:  0240 0050 f014 c38c c46a 8666 2ed5 8010  .@.P.....j.f....
        0x0030:  00fe bc5c 0000 0101 080a 6d7b 408a c121  ...\......m{@..!
        0x0040:  43f8                                     C.
16:29:16.980146 IP alis-air.58576 > mynetwork.home.domain: 37732+ PTR? 15.2.168.192.in-addr.arpa. (43)
        0x0000:  1890 d8da e860 cc08 fa6c 0fac 0800 4500  .....`...l....E.
        0x0010:  0047 3305 0000 4011 c20f c0a8 0240 c0a8  .G3...@......@..
        0x0020:  0201 e4d0 0035 0033 7ecf 9364 0100 0001  .....5.3~..d....
        0x0030:  0000 0000 0000 0231 3501 3203 3136 3803  .......15.2.168.
        0x0040:  3139 3207 696e 2d61 6464 7204 6172 7061  192.in-addr.arpa
        0x0050:  0000 0c00 01                             .....
16:29:17.005466 IP mynetwork.home.domain > alis-air.58576: 37732* 1/0/0 PTR Google-Nest-Mini. (73)
        0x0000:  cc08 fa6c 0fac 1890 d8da e860 0800 4500  ...l.......`..E.
        0x0010:  0065 85ff 4000 4011 2ef7 c0a8 0201 c0a8  .e..@.@.........
        0x0020:  0240 0035 e4d0 0051 e843 9364 8580 0001  .@.5...Q.C.d....
        0x0030:  0001 0000 0000 0231 3501 3203 3136 3803  .......15.2.168.
        0x0040:  3139 3207 696e 2d61 6464 7204 6172 7061  192.in-addr.arpa
        0x0050:  0000 0c00 01c0 0c00 0c00 0100 0000 0000  ................
        0x0060:  1210 476f 6f67 6c65 2d4e 6573 742d 4d69  ..Google-Nest-Mi
        0x0070:  6e69 00                                  ni.
16:29:17.085713 IP samsung.36080 > 192.168.2.255.15600: UDP, length 35
        0x0000:  ffff ffff ffff a0d7 f31a 312c 0800 4500  ..........1,..E.
        0x0010:  003f 3f57 4000 4011 74f6 c0a8 0211 c0a8  .??W@.@.t.......
        0x0020:  02ff 8cf0 3cf0 002b 671f 5345 4152 4348  ....<..+g.SEARCH
        0x0030:  2042 5344 502f 302e 310a 4445 5649 4345  .BSDP/0.1.DEVICE
        0x0040:  3d30 0a53 4552 5649 4345 3d31 0a         =0.SERVICE=1.
16:29:17.109828 IP alis-air.56682 > mynetwork.home.domain: 27545+ PTR? 17.2.168.192.in-addr.arpa. (43)
        0x0000:  1890 d8da e860 cc08 fa6c 0fac 0800 4500  .....`...l....E.
        0x0010:  0047 49f2 0000 4011 ab22 c0a8 0240 c0a8  .GI...@.."...@..
        0x0020:  0201 dd6a 0035 0033 ac00 6b99 0100 0001  ...j.5.3..k.....
        0x0030:  0000 0000 0000 0231 3701 3203 3136 3803  .......17.2.168.
        0x0040:  3139 3207 696e 2d61 6464 7204 6172 7061  192.in-addr.arpa
        0x0050:  0000 0c00 01                             .....
16:29:17.112925 IP mynetwork.home.domain > alis-air.56682: 27545* 1/0/0 PTR Samsung. (64)
        0x0000:  cc08 fa6c 0fac 1890 d8da e860 0800 4500  ...l.......`..E.
        0x0010:  005c 8630 4000 4011 2ecf c0a8 0201 c0a8  .\.0@.@.........
        0x0020:  0240 0035 dd6a 0048 674a 6b99 8580 0001  .@.5.j.HgJk.....
        0x0030:  0001 0000 0000 0231 3701 3203 3136 3803  .......17.2.168.
        0x0040:  3139 3207 696e 2d61 6464 7204 6172 7061  192.in-addr.arpa
        0x0050:  0000 0c00 01c0 0c00 0c00 0100 0000 0000  ................
        0x0060:  0907 5361 6d73 756e 6700                 ..Samsung.
16:29:17.466788 IP alis-air.61128 > google-home-mini.8009: Flags [P.], seq 2488562264:2488562374, ack 1324495291, win 2048, options [nop,nop,TS val 1973198421 ecr 5069511], length 110
        0x0000:  3c8d 2055 a6d1 cc08 fa6c 0fac 0800 4500  <..U.....l....E.
        0x0010:  00a2 0000 4000 4006 b4b8 c0a8 0240 c0a8  ....@.@......@..
        0x0020:  020d eec8 1f49 9454 7258 4ef2 31bb 8018  .....I.TrXN.1...
        0x0030:  0800 f1fe 0000 0101 080a 759c 9e55 004d  ..........u..U.M
        0x0040:  5ac7 1703 0300 69b5 6085 6eea 51e2 82cd  Z.....i.`.n.Q...
        0x0050:  1405 bd05 bc1b 6042 41e7 5bcf 4d04 6f41  ......`BA.[.M.oA
        0x0060:  1e69 585b 7e52 8bda 4374 9c3c 69e7 2c42  .iX[~R..Ct.<i.,B
        0x0070:  ba50 50cc 336b 3f63 00c8 8780 d463 1364  .PP.3k?c.....c.d
        0x0080:  2e8c 590e 5e4d 42ae a438 4122 60b9 8a32  ..Y.^MB..8A"`..2
        0x0090:  e840 7a3e 738a 1de7 1623 b231 d518 5113  .@z>s....#.1..Q.
        0x00a0:  46c5 d688 3c8c e559 28b3 8a2a 0b60 c571  F...<..Y(..*.`.q
16:29:17.472848 IP google-home-mini.8009 > alis-air.61128: Flags [P.], seq 1:111, ack 110, win 278, options [nop,nop,TS val 5070012 ecr 1973198421], length 110
        0x0000:  cc08 fa6c 0fac 3c8d 2055 a6d1 0800 4500  ...l..<..U....E.
        0x0010:  00a2 d99f 4000 4006 db18 c0a8 020d c0a8  ....@.@.........
        0x0020:  0240 1f49 eec8 4ef2 31bb 9454 72c6 8018  .@.I..N.1..Tr...
        0x0030:  0116 84cc 0000 0101 080a 004d 5cbc 759c  ...........M\.u.
        0x0040:  9e55 1703 0300 69be a0f3 a996 aec7 dce4  .U....i.........
        0x0050:  d379 ea8f d59e 6bc9 bb12 b296 eb7c 94f6  .y....k......|..
        0x0060:  526f 005c 6b0c 3d7b 630e c293 710d cf9c  Ro.\k.={c...q...
        0x0070:  0931 b6a9 0911 bdd8 9e94 1ecc 71a3 2417  .1..........q.$.
        0x0080:  3d41 83d0 a1c3 7a76 e412 d625 8476 f880  =A....zv...%.v..
        0x0090:  47b4 674a 8778 f59a a9aa 4c0d 7f50 953c  G.gJ.x....L..P.<
        0x00a0:  6134 3ac1 d66c ec93 10cf cc52 064d 53b2  a4:..l.....R.MS.
16:29:17.473022 IP alis-air.61128 > google-home-mini.8009: Flags [.], ack 111, win 2046, options [nop,nop,TS val 1973198427 ecr 5070012], length 0
        0x0000:  3c8d 2055 a6d1 cc08 fa6c 0fac 0800 4500  <..U.....l....E.
        0x0010:  0034 0000 4000 4006 b526 c0a8 0240 c0a8  .4..@.@..&...@..
        0x0020:  020d eec8 1f49 9454 72c6 4ef2 3229 8010  .....I.Tr.N.2)..
        0x0030:  07fe e1d7 0000 0101 080a 759c 9e5b 004d  ..........u..[.M
        0x0040:  5cbc                                     \.
16:29:17.519384 IP alis-air.52349 > mynetwork.home.domain: 64+ PTR? 13.2.168.192.in-addr.arpa. (43)
        0x0000:  1890 d8da e860 cc08 fa6c 0fac 0800 4500  .....`...l....E.
        0x0010:  0047 d18b 0000 4011 2389 c0a8 0240 c0a8  .G....@.#....@..
        0x0020:  0201 cc7d 0035 0033 2c47 0040 0100 0001  ...}.5.3,G.@....
        0x0030:  0000 0000 0000 0231 3301 3203 3136 3803  .......13.2.168.
        0x0040:  3139 3207 696e 2d61 6464 7204 6172 7061  192.in-addr.arpa
        0x0050:  0000 0c00 01                             .....
16:29:17.528414 IP mynetwork.home.domain > alis-air.52349: 64* 1/0/0 PTR Google-Home-Mini. (73)
        0x0000:  cc08 fa6c 0fac 1890 d8da e860 0800 4500  ...l.......`..E.
        0x0010:  0065 8727 4000 4011 2dcf c0a8 0201 c0a8  .e.'@.@.-.......
        0x0020:  0240 0035 cc7d 0051 9ac7 0040 8580 0001  .@.5.}.Q...@....
        0x0030:  0001 0000 0000 0231 3301 3203 3136 3803  .......13.2.168.
        0x0040:  3139 3207 696e 2d61 6464 7204 6172 7061  192.in-addr.arpa
        0x0050:  0000 0c00 01c0 0c00 0c00 0100 0000 0000  ................
        0x0060:  1210 476f 6f67 6c65 2d48 6f6d 652d 4d69  ..Google-Home-Mi
        0x0070:  6e69 00                                  ni.
16:29:17.700306 IP 0e:88:27:cc:75:17.mdns > mdns.mcast.net.mdns: 0*- [0q] 2/0/0 PTR SarahM-bM-^@M-^Ys iPhone (2)._rdlink._tcp.local., TXT "model=N104AP" (124)
        0x0000:  0100 5e00 00fb 0e88 27cc 7517 0800 4500  ..^.....'.u...E.
        0x0010:  0098 9c74 0000 ff11 7b28 c0a8 0214 e000  ...t....{(......
        0x0020:  00fb 14e9 14e9 0084 02ae 0000 8400 0000  ................
        0x0030:  0002 0000 0000 075f 7264 6c69 6e6b 045f  ......._rdlink._
        0x0040:  7463 7005 6c6f 6361 6c00 000c 0001 0000  tcp.local.......
        0x0050:  0000 0017 1453 6172 6168 e280 9973 2069  .....Sarah...s.i
        0x0060:  5068 6f6e 6520 2832 29c0 0c14 5361 7261  Phone.(2)...Sara
        0x0070:  68e2 8099 7320 6950 686f 6e65 2028 3229  h...s.iPhone.(2)
        0x0080:  0c5f 6465 7669 6365 2d69 6e66 6fc0 1400  ._device-info...
        0x0090:  1000 0100 0000 0000 0d0c 6d6f 6465 6c3d  ..........model=
        0x00a0:  4e31 3034 4150                           N104AP
16:29:17.700308 IP6 sarahs-iphone-2.local.mdns > ff02::fb.mdns: 0*- [0q] 2/0/0 PTR SarahM-bM-^@M-^Ys iPhone (2)._rdlink._tcp.local., TXT "model=N104AP" (124)
        0x0000:  3333 0000 00fb 0e88 27cc 7517 86dd 6008  33......'.u...`.
        0x0010:  0800 0084 11ff fe80 0000 0000 0000 00ac  ................
        0x0020:  c7c0 e053 9bab ff02 0000 0000 0000 0000  ...S............
        0x0030:  0000 0000 00fb 14e9 14e9 0084 637b 0000  ............c{..
        0x0040:  8400 0000 0002 0000 0000 075f 7264 6c69  ..........._rdli
        0x0050:  6e6b 045f 7463 7005 6c6f 6361 6c00 000c  nk._tcp.local...
        0x0060:  0001 0000 0000 0017 1453 6172 6168 e280  .........Sarah..
        0x0070:  9973 2069 5068 6f6e 6520 2832 29c0 0c14  .s.iPhone.(2)...
        0x0080:  5361 7261 68e2 8099 7320 6950 686f 6e65  Sarah...s.iPhone
        0x0090:  2028 3229 0c5f 6465 7669 6365 2d69 6e66  .(2)._device-inf
        0x00a0:  6fc0 1400 1000 0100 0000 0000 0d0c 6d6f  o.............mo
        0x00b0:  6465 6c3d 4e31 3034 4150                 del=N104AP
16:29:17.732781 IP alis-air.59272 > mynetwork.home.domain: 26374+ PTR? 20.2.168.192.in-addr.arpa. (43)
        0x0000:  1890 d8da e860 cc08 fa6c 0fac 0800 4500  .....`...l....E.
        0x0010:  0047 587f 0000 4011 9c95 c0a8 0240 c0a8  .GX...@......@..
        0x0020:  0201 e788 0035 0033 ad74 6706 0100 0001  .....5.3.tg.....
        0x0030:  0000 0000 0000 0232 3001 3203 3136 3803  .......20.2.168.
        0x0040:  3139 3207 696e 2d61 6464 7204 6172 7061  192.in-addr.arpa
        0x0050:  0000 0c00 01                             .....
16:29:17.754165 IP mynetwork.home.domain > alis-air.59272: 26374* 1/0/0 PTR 0E:88:27:CC:75:17. (74)
        0x0000:  cc08 fa6c 0fac 1890 d8da e860 0800 4500  ...l.......`..E.
        0x0010:  0066 8785 4000 4011 2d70 c0a8 0201 c0a8  .f..@.@.-p......
        0x0020:  0240 0035 e788 0052 0111 6706 8580 0001  .@.5...R..g.....
        0x0030:  0001 0000 0000 0232 3001 3203 3136 3803  .......20.2.168.
        0x0040:  3139 3207 696e 2d61 6464 7204 6172 7061  192.in-addr.arpa
        0x0050:  0000 0c00 01c0 0c00 0c00 0100 0000 0000  ................
        0x0060:  1311 3045 3a38 383a 3237 3a43 433a 3735  ..0E:88:27:CC:75
        0x0070:  3a31 3700                                :17.
16:29:17.763010 IP alis-air.61191 > ec2-3-97-95-115.ca-central-1.compute.amazonaws.com.https: Flags [P.], seq 2756119323:2756120172, ack 1102058885, win 2048, options [nop,nop,TS val 721377253 ecr 3875913688], length 849
        0x0000:  1890 d8da e860 cc08 fa6c 0fac 0800 4500  .....`...l....E.
        0x0010:  0385 0000 4000 4006 11b7 c0a8 0240 0361  ....@.@......@.a
        0x0020:  5f73 ef07 01bb a447 0b1b 41b0 1585 8018  _s.....G..A.....
        0x0030:  0800 9529 0000 0101 080a 2aff 57e5 e705  ...)......*.W...
        0x0040:  bfd8 1703 0303 4cb1 4401 6cc9 5c88 ba7b  ......L.D.l.\..{
        0x0050:  dbac e76a e2c9 f65c 547d cac2 b2d2 b5b6  ...j...\T}......
        0x0060:  baf8 f309 b9f3 38a3 1aaf c947 4816 a93f  ......8....GH..?
        0x0070:  eeaa 74b1 067e 45ce ce2c 81dc 7a6f 9ee3  ..t..~E..,..zo..
        0x0080:  138b 93ab 28ea fbf3 49fb b608 f015 73e5  ....(...I.....s.
        0x0090:  f160 982b c0b8 0727 7374 85e1 2448 7b29  .`.+...'st..$H{)
        0x00a0:  b7f3 702f bf6d fe12 0ae6 ebea a60c af7d  ..p/.m.........}
        0x00b0:  c52d 13f7 97ab d352 f8cb 04d2 9cd8 d8c6  .-.....R........
        0x00c0:  61ae 0b9a 8bb9 6931 51ad 542c 955a 6d7b  a.....i1Q.T,.Zm{
        0x00d0:  571d 8857 12fb 6791 1361 bf82 dff0 c9fb  W..W..g..a......
        0x00e0:  ddd9 3f51 bda8 521c f7a5 b3dd bd70 6575  ..?Q..R......peu
        0x00f0:  4425 9085 08c7 3ab3 0815 6838 8096 60ac  D%....:...h8..`.
        0x0100:  1cfd 1369 55b8 1bb4 1e11 860d 6bde 0b94  ...iU.......k...
        0x0110:  33c8 7b8c 0d12 8b5c cadc 11ad 18b3 1b91  3.{....\........
        0x0120:  67e9 b1e6 a133 f605 5a74 dd93 fc72 76e4  g....3..Zt...rv.
        0x0130:  de82 cd46 31ea 346c f319 742f a0b4 16cc  ...F1.4l..t/....
        0x0140:  d17c d13a 305d f3ab d905 393b 5dc9 b854  .|.:0]....9;]..T
        0x0150:  2925 974f 1827 6865 130b 939d bb5e 5964  )%.O.'he.....^Yd
        0x0160:  db52 0af2 769c 0876 770e ef25 efa5 c4a4  .R..v..vw..%....
        0x0170:  6729 e4b1 532f 3c8c f326 e416 3716 c3e6  g)..S/<..&..7...
        0x0180:  0410 16d8 3e46 6b2e c808 0939 58f3 0016  ....>Fk....9X...
        0x0190:  8519 d768 8c05 2d27 8c94 e73b 6d2b af79  ...h..-'...;m+.y
        0x01a0:  69dc d9d7 61e4 e172 8991 7185 f93c b3ed  i...a..r..q..<..
        0x01b0:  06e7 467d d7de 8855 1399 b8f1 578b c770  ..F}...U....W..p
        0x01c0:  2889 6747 6427 79ab 5463 9a71 c47c 4ea1  (.gGd'y.Tc.q.|N.
        0x01d0:  622e bc54 4f34 aacb 312b f647 a20d f41d  b..TO4..1+.G....
        0x01e0:  d8af 1909 8401 d58b 4b19 1703 bb0f 5d72  ........K.....]r
        0x01f0:  85f9 3f5d 0d15 b6d2 cca8 85be ed3a e92f  ..?].........:./
        0x0200:  a728 894a 77cf 03ac 19b5 496c 927a 482e  .(.Jw.....Il.zH.
        0x0210:  f390 e783 c1c0 96c0 c02f 3d7c c4c6 02df  ........./=|....
        0x0220:  deed 6cf9 28e4 7048 6c3e 2f99 8146 7625  ..l.(.pHl>/..Fv%
        0x0230:  da32 0c85 cc26 10a7 906a 8164 fc13 00fd  .2...&...j.d....
        0x0240:  8c46 f94f 0137 f860 783c 41e5 d067 9cfa  .F.O.7.`x<A..g..
        0x0250:  ee82 323f 13a1 adb7 f862 46ff c782 a599  ..2?.....bF.....
        0x0260:  3e11 3f07 74a3 2255 4d96 c37e 2c6a 9b69  >.?.t."UM..~,j.i
        0x0270:  2c65 9183 c0ae bd44 b7b5 e819 639e 3334  ,e.....D....c.34
        0x0280:  9f7f 77a9 a47e ffd6 d346 fa7f 519a aac1  ..w..~...F..Q...
        0x0290:  1d07 d1c5 204d a55a 99e0 7df8 070e 1cbf  .....M.Z..}.....
        0x02a0:  5ac9 65d3 78fe 6bfb 081d df2f 0b79 66d7  Z.e.x.k..../.yf.
        0x02b0:  565b ea96 ef33 a927 72c0 acac cb15 cdcc  V[...3.'r.......
        0x02c0:  a837 7c40 e34e 0cc9 b184 8676 0a25 9f3a  .7|@.N.....v.%.:
        0x02d0:  51d1 4494 2e77 4027 9031 845d 72c3 1b3c  Q.D..w@'.1.]r..<
        0x02e0:  04bd e00a 2949 9754 d84c 3ac0 e86d 885d  ....)I.T.L:..m.]
        0x02f0:  032e 98e3 c35a eb3f 692f 446f 15e1 14f5  .....Z.?i/Do....
        0x0300:  f94c 2ad5 7b64 d0b0 ee32 6834 4211 1119  .L*.{d...2h4B...
        0x0310:  5227 39be b248 8d75 6eda 58f0 307f 2a2a  R'9..H.un.X.0.**
        0x0320:  9cbf 1220 6777 42a8 ecf7 89c4 b853 cc4f  ....gwB......S.O
        0x0330:  98bc 27e1 3587 8686 2ab4 d081 5ed7 a145  ..'.5...*...^..E
        0x0340:  af6b 70b9 5881 5119 7301 1a23 ce19 e557  .kp.X.Q.s..#...W
        0x0350:  9a66 2e29 125f 064f aafe 6ed0 58d1 8606  .f.)._.O..n.X...
        0x0360:  05e3 6028 255b 1993 91eb b8ea da07 a7ea  ..`(%[..........
        0x0370:  7ae7 4138 1130 dae9 8d45 376e 293e 5707  z.A8.0...E7n)>W.
        0x0380:  3420 3fe2 de4b e678 cda0 5125 7fa8 f6b2  4.?..K.x..Q%....
        0x0390:  062f ee                                  ./.
16:29:17.922388 IP ec2-3-97-95-115.ca-central-1.compute.amazonaws.com.https > alis-air.61191: Flags [P.], seq 1:539, ack 849, win 442, options [nop,nop,TS val 3875940781 ecr 721377253], length 538
        0x0000:  cc08 fa6c 0fac 1890 d8da e860 0800 4500  ...l.......`..E.
        0x0010:  024e 4fab 4000 ee06 1542 0361 5f73 c0a8  .NO.@....B.a_s..
        0x0020:  0240 01bb ef07 41b0 1585 a447 0e6c 8018  .@....A....G.l..
        0x0030:  01ba abdf 0000 0101 080a e706 29ad 2aff  ............).*.
        0x0040:  57e5 1703 0302 15df 5eb9 0149 22ea d0f8  W.......^..I"...
        0x0050:  b5be 1e74 35db 04ca 5d83 24d9 5117 11c4  ...t5...].$.Q...
        0x0060:  be06 bd4a 843f dabf b0b1 3266 7995 8a5b  ...J.?....2fy..[
        0x0070:  98df 2fa3 6eef 6519 0e18 c9a6 f6f7 dcd5  ../.n.e.........
        0x0080:  961a 1f74 cc62 f729 a28e ec1e 001d 4c10  ...t.b.)......L.
        0x0090:  0b57 f77c 3dbc 002c ad89 8458 4958 873a  .W.|=..,...XIX.:
        0x00a0:  3ae9 5146 8fa7 54ff d15e 907d 053c 42a8  :.QF..T..^.}.<B.
        0x00b0:  b4d6 3288 e437 4b15 e2bd 90e7 5310 f921  ..2..7K.....S..!
        0x00c0:  aa39 4143 c8d5 896f fef1 abe8 9da6 dcd8  .9AC...o........
        0x00d0:  c609 e11e 1cf6 15da be23 9088 3064 ed27  .........#..0d.'
        0x00e0:  b80b 8c3f ccda 52d2 972c 056d 9969 eb7a  ...?..R..,.m.i.z
        0x00f0:  323a fcb7 436c fdcf 417a 6c39 0d7e 9d9e  2:..Cl..Azl9.~..
        0x0100:  2489 69c1 8753 23c9 63d6 4c26 9f61 d92b  $.i..S#.c.L&.a.+
        0x0110:  f4c5 31da ce1a 82eb ac72 f2fa 94ae c0f5  ..1......r......
        0x0120:  07ff 8868 a10f c0df 32ce fb5f 9b52 97a9  ...h....2.._.R..
        0x0130:  79f0 35c2 97d7 d0ba a7cc 9583 c753 eeb3  y.5..........S..
        0x0140:  5f29 b37e 7785 6557 7f3f 8ebb e959 11a5  _).~w.eW.?...Y..
        0x0150:  e7fb c2fb b751 bd5b 1bac a63a 4f36 be78  .....Q.[...:O6.x
        0x0160:  6bc7 cf8c 675b 7ee6 f9a4 4130 10b3 56ed  k...g[~...A0..V.
        0x0170:  79ca b11f 5ec9 1a28 418e bb23 a465 149c  y...^..(A..#.e..
        0x0180:  5181 0c94 5db1 035f 5667 4818 76b8 1f8a  Q...].._VgH.v...
        0x0190:  33c7 a807 d79c a3b4 934c b34f 0754 a4ac  3........L.O.T..
        0x01a0:  106f 34b0 f331 6da6 1729 e767 ca25 58cb  .o4..1m..).g.%X.
        0x01b0:  740a e261 b139 2225 6fbc 492a 3cdf 9aa4  t..a.9"%o.I*<...
        0x01c0:  08e6 55b1 33cd 6fcf fda5 0a95 076d a726  ..U.3.o......m.&
        0x01d0:  412d 8b38 9d68 0bcd 2b1c a7f0 f456 490d  A-.8.h..+....VI.
        0x01e0:  b36e 9b5e 913d 6dff 9723 3953 b808 e38a  .n.^.=m..#9S....
        0x01f0:  bfb4 35a5 a8ff 2e7a f91c 1823 9bbf 779d  ..5....z...#..w.
        0x0200:  3c47 609b 1158 1395 ea8b 0e40 7b91 33bc  <G`..X.....@{.3.
        0x0210:  f3d4 cf93 9fa5 9aa4 84ec 0d76 9c48 73d3  ...........v.Hs.
        0x0220:  f3e7 e277 c079 41ac 2c5f c217 6d3a b811  ...w.yA.,_..m:..
        0x0230:  a893 76b6 b125 9489 539a 8429 5b50 aab9  ..v..%..S..)[P..
        0x0240:  5fb7 4600 d10b ef8b f7d4 f270 e08c 7b79  _.F........p..{y
        0x0250:  6dcf 1312 5785 0d3a f3a1 759f            m...W..:..u.
16:29:17.922598 IP alis-air.61191 > ec2-3-97-95-115.ca-central-1.compute.amazonaws.com.https: Flags [.], ack 539, win 2039, options [nop,nop,TS val 721377412 ecr 3875940781], length 0
        0x0000:  1890 d8da e860 cc08 fa6c 0fac 0800 4500  .....`...l....E.
        0x0010:  0034 0000 4000 4006 1508 c0a8 0240 0361  .4..@.@......@.a
        0x0020:  5f73 ef07 01bb a447 0e6c 41b0 179f 8010  _s.....G.lA.....
        0x0030:  07f7 b80c 0000 0101 080a 2aff 5884 e706  ..........*.X...
        0x0040:  29ad                                     ).
16:29:18.064171 IP 162.159.130.234.https > alis-air.61131: Flags [P.], seq 77:222, ack 1, win 8, options [nop,nop,TS val 2535140517 ecr 3649622063], length 145
        0x0000:  cc08 fa6c 0fac 1890 d8da e860 0800 4500  ...l.......`..E.
        0x0010:  00c5 f7d5 4000 3806 61eb a29f 82ea c0a8  ....@.8.a.......
        0x0020:  0240 01bb eecb ec7e b7ba c9bf 74dc 8018  .@.....~....t...
        0x0030:  0008 d920 0000 0101 080a 971b 2ca5 d988  ............,...
        0x0040:  d02f 1703 0300 8cfc df94 b7c2 a61f 09e9  ./..............
        0x0050:  f460 2761 14b5 d25b 2e01 f916 8cc1 9981  .`'a...[........
        0x0060:  82d1 2b3d 3bf9 902f cc87 c427 3551 9cfd  ..+=;../...'5Q..
        0x0070:  5c28 6223 1291 2ad5 e1b0 ff9a a7c2 ce4d  \(b#..*........M
        0x0080:  2943 114e 527d 010a 4a92 c440 d81f 28c3  )C.NR}..J..@..(.
        0x0090:  d93c ec95 b9e4 97bc 6c0b b155 aee8 bd9f  .<......l..U....
        0x00a0:  f96c 4e39 bcd5 79ce 217a 6358 645a 5e8b  .lN9..y.!zcXdZ^.
        0x00b0:  8516 c3e6 70e0 d304 9f4e 2e7a 3e99 0a55  ....p....N.z>..U
        0x00c0:  8e3d dbd3 061b c1e8 d57e fadf f402 be57  .=.......~.....W
        0x00d0:  0a49 9d                                  .I.
16:29:18.064297 IP alis-air.61131 > 162.159.130.234.https: Flags [.], ack 222, win 8270, options [nop,nop,TS val 3649623655 ecr 2535140517], length 0
        0x0000:  1890 d8da e860 cc08 fa6c 0fac 0800 4500  .....`...l....E.
        0x0010:  0034 0000 4000 4006 5252 c0a8 0240 a29f  .4..@.@.RR...@..
        0x0020:  82ea eecb 01bb c9bf 74dc ec7e b84b 8010  ........t..~.K..
        0x0030:  204e 265e 0000 0101 080a d988 d667 971b  .N&^.........g..
        0x0040:  2ca5                                     ,.
16:29:18.109736 IP 7c:f6:66:f5:a4:43.52024 > broadcasthost.6667: UDP, length 172
        0x0000:  ffff ffff ffff 7cf6 66f5 a443 0800 4500  ......|.f..C..E.
        0x0010:  00c8 dd44 0000 ff11 1b28 c0a8 0210 ffff  ...D.....(......
        0x0020:  ffff cb38 1a0b 00b4 dca5 0000 55aa 0000  ...8........U...
        0x0030:  0000 0000 0013 0000 009c 0000 0000 97b9  ................
        0x0040:  3fee 4b69 c95f eeb3 d33b da35 2952 5519  ?.Ki._...;.5)RU.
        0x0050:  a0ca 8e74 cc5b 84da 1381 7687 db7e 19dc  ...t.[....v..~..
        0x0060:  4f7b 43e8 89e7 aa00 b508 403d f4d4 d7ae  O{C.......@=....
        0x0070:  1979 1f1b 07c7 01b6 c24f 11ee 4304 c2fb  .y.......O..C...
        0x0080:  8459 b115 5fc7 5d4b f669 9f92 cba4 c0ba  .Y.._.]K.i......
        0x0090:  5201 4804 5e76 05fa 0498 dfea 5aab 2fc9  R.H.^v......Z./.
        0x00a0:  b217 0658 9460 c5b9 66bd 4fe5 4399 094e  ...X.`..f.O.C..N
        0x00b0:  c5c3 3da1 c6e2 8f7a 0010 0935 d985 6eda  ..=....z...5..n.
        0x00c0:  8eea 40e9 3b1e 3fc1 4a25 70e1 8279 9b22  ..@.;.?.J%p..y."
        0x00d0:  65d8 0000 aa55                           e....U
16:29:18.164726 IP alis-air.51061 > mynetwork.home.domain: 24226+ PTR? 16.2.168.192.in-addr.arpa. (43)
        0x0000:  1890 d8da e860 cc08 fa6c 0fac 0800 4500  .....`...l....E.
        0x0010:  0047 19c9 0000 4011 db4b c0a8 0240 c0a8  .G....@..K...@..
        0x0020:  0201 c775 0035 0033 cfec 5ea2 0100 0001  ...u.5.3..^.....
        0x0030:  0000 0000 0000 0231 3601 3203 3136 3803  .......16.2.168.
        0x0040:  3139 3207 696e 2d61 6464 7204 6172 7061  192.in-addr.arpa
        0x0050:  0000 0c00 01                             .....
16:29:18.167794 IP mynetwork.home.domain > alis-air.51061: 24226* 1/0/0 PTR 7C:F6:66:F5:A4:43. (74)
        0x0000:  cc08 fa6c 0fac 1890 d8da e860 0800 4500  ...l.......`..E.
        0x0010:  0066 8900 4000 4011 2bf5 c0a8 0201 c0a8  .f..@.@.+.......
        0x0020:  0240 0035 c775 0052 2279 5ea2 8580 0001  .@.5.u.R"y^.....
        0x0030:  0001 0000 0000 0231 3601 3203 3136 3803  .......16.2.168.
        0x0040:  3139 3207 696e 2d61 6464 7204 6172 7061  192.in-addr.arpa
        0x0050:  0000 0c00 01c0 0c00 0c00 0100 0000 0000  ................
        0x0060:  1311 3743 3a46 363a 3636 3a46 353a 4134  ..7C:F6:66:F5:A4
        0x0070:  3a34 3300                                :43.
16:29:18.168854 IP alis-air.64850 > mynetwork.home.domain: 15448+ PTR? 255.255.255.255.in-addr.arpa. (46)
        0x0000:  1890 d8da e860 cc08 fa6c 0fac 0800 4500  .....`...l....E.
        0x0010:  004a b7e8 0000 4011 3d29 c0a8 0240 c0a8  .J....@.=)...@..
        0x0020:  0201 fd52 0035 0036 4a26 3c58 0100 0001  ...R.5.6J&<X....
        0x0030:  0000 0000 0000 0332 3535 0332 3535 0332  .......255.255.2
        0x0040:  3535 0332 3535 0769 6e2d 6164 6472 0461  55.255.in-addr.a
        0x0050:  7270 6100 000c 0001                      rpa.....
16:29:18.170957 IP mynetwork.home.domain > alis-air.64850: 15448 NXDomain* 0/0/0 (46)
        0x0000:  cc08 fa6c 0fac 1890 d8da e860 0800 4500  ...l.......`..E.
        0x0010:  004a 8902 4000 4011 2c0f c0a8 0201 c0a8  .J..@.@.,.......
        0x0020:  0240 0035 fd52 0036 c5a2 3c58 8583 0001  .@.5.R.6..<X....
        0x0030:  0000 0000 0000 0332 3535 0332 3535 0332  .......255.255.2
        0x0040:  3535 0332 3535 0769 6e2d 6164 6472 0461  55.255.in-addr.a
        0x0050:  7270 6100 000c 0001                      rpa.....
16:29:18.999280 IP 162.159.130.234.https > alis-air.61131: Flags [P.], seq 222:352, ack 1, win 8, options [nop,nop,TS val 2535141438 ecr 3649623655], length 130
        0x0000:  cc08 fa6c 0fac 1890 d8da e860 0800 4500  ...l.......`..E.
        0x0010:  00b6 f7d6 4000 3806 61f9 a29f 82ea c0a8  ....@.8.a.......
        0x0020:  0240 01bb eecb ec7e b84b c9bf 74dc 8018  .@.....~.K..t...
        0x0030:  0008 87d4 0000 0101 080a 971b 303e d988  ............0>..
        0x0040:  d667 1703 0300 7d58 cf21 deaf c08b 8055  .g....}X.!.....U
        0x0050:  76eb ca1f c56e 1296 6a06 2de5 39e2 c007  v....n..j.-.9...
        0x0060:  ac64 1e24 1cb9 a9dc 8b50 dd00 e471 ea97  .d.$.....P...q..
        0x0070:  09ac cc01 4366 3c52 0e11 37e2 08ea eafd  ....Cf<R..7.....
        0x0080:  17b4 135e ae73 3a74 6d95 c1d3 81cf 1eca  ...^.s:tm.......
        0x0090:  7f21 bdea 2ced 9a99 ba92 033d 0576 633f  .!..,......=.vc?
        0x00a0:  52a6 da34 0d06 ffae 4492 e1b9 e4c7 217e  R..4....D.....!~
        0x00b0:  81c9 c43a aa87 4a21 6b43 810f ea4e e9e9  ...:..J!kC...N..
        0x00c0:  26cd 9abf                                &...
16:29:18.999418 IP alis-air.61131 > 162.159.130.234.https: Flags [.], ack 352, win 8270, options [nop,nop,TS val 3649624590 ecr 2535141438], length 0
        0x0000:  1890 d8da e860 cc08 fa6c 0fac 0800 4500  .....`...l....E.
        0x0010:  0034 0000 4000 4006 5252 c0a8 0240 a29f  .4..@.@.RR...@..
        0x0020:  82ea eecb 01bb c9bf 74dc ec7e b8cd 8010  ........t..~....
        0x0030:  204e 1e9c 0000 0101 080a d988 da0e 971b  .N..............
        0x0040:  303e                                     0>
16:29:19.236141 IP samsung.42123 > 192.168.2.255.15600: UDP, length 35
        0x0000:  ffff ffff ffff 54bd 7928 f356 0800 4500  ......T.y(.V..E.
        0x0010:  003f 5bab 4000 4011 58a1 c0a8 0212 c0a8  .?[.@.@.X.......
        0x0020:  02ff a48b 3cf0 002b 4f83 5345 4152 4348  ....<..+O.SEARCH
        0x0030:  2042 5344 502f 302e 310a 4445 5649 4345  .BSDP/0.1.DEVICE
        0x0040:  3d30 0a53 4552 5649 4345 3d31 0a         =0.SERVICE=1.
^C
67 packets captured
67 packets received by filter
0 packets dropped by kernel